{
  "contractName": "TaskContract",
  "abi": [
    {
      "anonymous": false,
      "inputs": [
        {
          "indexed": false,
          "internalType": "address",
          "name": "recipient",
          "type": "address"
        },
        {
          "indexed": false,
          "internalType": "uint256",
          "name": "taskId",
          "type": "uint256"
        }
      ],
      "name": "AddTask",
      "type": "event"
    },
    {
      "anonymous": false,
      "inputs": [
        {
          "indexed": false,
          "internalType": "uint256",
          "name": "taskId",
          "type": "uint256"
        },
        {
          "indexed": false,
          "internalType": "bool",
          "name": "isDeleted",
          "type": "bool"
        }
      ],
      "name": "DeleteTask",
      "type": "event"
    },
    {
      "inputs": [
        {
          "internalType": "uint256",
          "name": "",
          "type": "uint256"
        }
      ],
      "name": "taskToOwner",
      "outputs": [
        {
          "internalType": "address",
          "name": "",
          "type": "address"
        }
      ],
      "stateMutability": "view",
      "type": "function"
    },
    {
      "inputs": [
        {
          "internalType": "string",
          "name": "taskText",
          "type": "string"
        },
        {
          "internalType": "bool",
          "name": "isDeleted",
          "type": "bool"
        }
      ],
      "name": "addTask",
      "outputs": [],
      "stateMutability": "nonpayable",
      "type": "function"
    },
    {
      "inputs": [],
      "name": "getMyTasks",
      "outputs": [
        {
          "components": [
            {
              "internalType": "uint256",
              "name": "id",
              "type": "uint256"
            },
            {
              "internalType": "string",
              "name": "taskText",
              "type": "string"
            },
            {
              "internalType": "bool",
              "name": "isDeleted",
              "type": "bool"
            }
          ],
          "internalType": "struct TaskContract.Task[]",
          "name": "",
          "type": "tuple[]"
        }
      ],
      "stateMutability": "view",
      "type": "function"
    },
    {
      "inputs": [
        {
          "internalType": "uint256",
          "name": "taskId",
          "type": "uint256"
        },
        {
          "internalType": "bool",
          "name": "isDeleted",
          "type": "bool"
        }
      ],
      "name": "deleteTask",
      "outputs": [],
      "stateMutability": "nonpayable",
      "type": "function"
    }
  ],
  "bytecode": "0x608060405234801561000f575f80fd5b50610e908061001d5f395ff3fe608060405234801561000f575f80fd5b506004361061004a575f3560e01c806320df45811461004e5780636641c6c41461006a5780636e13f8181461009a578063aaba2907146100b8575b5f80fd5b61006860048036038101906100639190610776565b6100d4565b005b610084600480360381019061007f9190610803565b6101ec565b604051610091919061086d565b60405180910390f35b6100a261021c565b6040516100af9190610a26565b60405180910390f35b6100d260048036038101906100cd9190610a46565b6104f9565b005b5f808054905090505f6040518060600160405280838152602001858152602001841515815250908060018154018082558091505060019003905f5260205f2090600302015f909190919091505f820151815f0155602082015181600101908161013d9190610c7e565b506040820151816002015f6101000a81548160ff02191690831515021790555050503360015f8381526020019081526020015f205f6101000a81548173ffffffffffffffffffffffffffffffffffffffff021916908373ffffffffffffffffffffffffffffffffffffffff1602179055507f1f54e1ba1832d428fbd7e7792beaf62b1fc5a382c207ffd614209c1413e94fda33826040516101df929190610d5c565b60405180910390a1505050565b6001602052805f5260405f205f915054906101000a900473ffffffffffffffffffffffffffffffffffffffff1681565b60605f808054905067ffffffffffffffff81111561023d5761023c61061d565b5b60405190808252806020026020018201604052801561027657816020015b6102636105d3565b81526020019060019003908161025b5790505b5090505f805b5f80549050811015610441573373ffffffffffffffffffffffffffffffffffffffff1660015f8381526020019081526020015f205f9054906101000a900473ffffffffffffffffffffffffffffffffffffffff1673ffffffffffffffffffffffffffffffffffffffff1614801561031f57505f818154811061030157610300610d83565b5b905f5260205f2090600302016002015f9054906101000a900460ff16155b1561042e575f818154811061033757610336610d83565b5b905f5260205f2090600302016040518060600160405290815f820154815260200160018201805461036790610ab1565b80601f016020809104026020016040519081016040528092919081815260200182805461039390610ab1565b80156103de5780601f106103b5576101008083540402835291602001916103de565b820191905f5260205f20905b8154815290600101906020018083116103c157829003601f168201915b50505050508152602001600282015f9054906101000a900460ff16151515158152505083838151811061041457610413610d83565b5b6020026020010181905250818061042a90610ddd565b9250505b808061043990610ddd565b91505061027c565b505f8167ffffffffffffffff81111561045d5761045c61061d565b5b60405190808252806020026020018201604052801561049657816020015b6104836105d3565b81526020019060019003908161047b5790505b5090505f5b828110156104ef578381815181106104b6576104b5610d83565b5b60200260200101518282815181106104d1576104d0610d83565b5b602002602001018190525080806104e790610ddd565b91505061049b565b5080935050505090565b3373ffffffffffffffffffffffffffffffffffffffff1660015f8481526020019081526020015f205f9054906101000a900473ffffffffffffffffffffffffffffffffffffffff1673ffffffffffffffffffffffffffffffffffffffff16036105cf57805f83815481106105705761056f610d83565b5b905f5260205f2090600302016002015f6101000a81548160ff0219169083151502179055507ff88a35c3d2016c409a46570b994a17b408dbc83c14a03f521512d50b85386d0682826040516105c6929190610e33565b60405180910390a15b5050565b60405180606001604052805f8152602001606081526020015f151581525090565b5f604051905090565b5f80fd5b5f80fd5b5f80fd5b5f80fd5b5f601f19601f8301169050919050565b7f4e487b71000000000000000000000000000000000000000000000000000000005f52604160045260245ffd5b6106538261060d565b810181811067ffffffffffffffff821117156106725761067161061d565b5b80604052505050565b5f6106846105f4565b9050610690828261064a565b919050565b5f67ffffffffffffffff8211156106af576106ae61061d565b5b6106b88261060d565b9050602081019050919050565b828183375f83830152505050565b5f6106e56106e084610695565b61067b565b90508281526020810184848401111561070157610700610609565b5b61070c8482856106c5565b509392505050565b5f82601f83011261072857610727610605565b5b81356107388482602086016106d3565b91505092915050565b5f8115159050919050565b61075581610741565b811461075f575f80fd5b50565b5f813590506107708161074c565b92915050565b5f806040838503121561078c5761078b6105fd565b5b5f83013567ffffffffffffffff8111156107a9576107a8610601565b5b6107b585828601610714565b92505060206107c685828601610762565b9150509250929050565b5f819050919050565b6107e2816107d0565b81146107ec575f80fd5b50565b5f813590506107fd816107d9565b92915050565b5f60208284031215610818576108176105fd565b5b5f610825848285016107ef565b91505092915050565b5f73ffffffffffffffffffffffffffffffffffffffff82169050919050565b5f6108578261082e565b9050919050565b6108678161084d565b82525050565b5f6020820190506108805f83018461085e565b92915050565b5f81519050919050565b5f82825260208201905092915050565b5f819050602082019050919050565b6108b8816107d0565b82525050565b5f81519050919050565b5f82825260208201905092915050565b5f5b838110156108f55780820151818401526020810190506108da565b5f8484015250505050565b5f61090a826108be565b61091481856108c8565b93506109248185602086016108d8565b61092d8161060d565b840191505092915050565b61094181610741565b82525050565b5f606083015f83015161095c5f8601826108af565b50602083015184820360208601526109748282610900565b91505060408301516109896040860182610938565b508091505092915050565b5f61099f8383610947565b905092915050565b5f602082019050919050565b5f6109bd82610886565b6109c78185610890565b9350836020820285016109d9856108a0565b805f5b85811015610a1457848403895281516109f58582610994565b9450610a00836109a7565b925060208a019950506001810190506109dc565b50829750879550505050505092915050565b5f6020820190508181035f830152610a3e81846109b3565b905092915050565b5f8060408385031215610a5c57610a5b6105fd565b5b5f610a69858286016107ef565b9250506020610a7a85828601610762565b9150509250929050565b7f4e487b71000000000000000000000000000000000000000000000000000000005f52602260045260245ffd5b5f6002820490506001821680610ac857607f821691505b602082108103610adb57610ada610a84565b5b50919050565b5f819050815f5260205f209050919050565b5f6020601f8301049050919050565b5f82821b905092915050565b5f60088302610b3d7fffffffffffffffffffffffffffffffffffffffffffffffffffffffffffffffff82610b02565b610b478683610b02565b95508019841693508086168417925050509392505050565b5f819050919050565b5f610b82610b7d610b78846107d0565b610b5f565b6107d0565b9050919050565b5f819050919050565b610b9b83610b68565b610baf610ba782610b89565b848454610b0e565b825550505050565b5f90565b610bc3610bb7565b610bce818484610b92565b505050565b5b81811015610bf157610be65f82610bbb565b600181019050610bd4565b5050565b601f821115610c3657610c0781610ae1565b610c1084610af3565b81016020851015610c1f578190505b610c33610c2b85610af3565b830182610bd3565b50505b505050565b5f82821c905092915050565b5f610c565f1984600802610c3b565b1980831691505092915050565b5f610c6e8383610c47565b9150826002028217905092915050565b610c87826108be565b67ffffffffffffffff811115610ca057610c9f61061d565b5b610caa8254610ab1565b610cb5828285610bf5565b5f60209050601f831160018114610ce6575f8415610cd4578287015190505b610cde8582610c63565b865550610d45565b601f198416610cf486610ae1565b5f5b82811015610d1b57848901518255600182019150602085019450602081019050610cf6565b86831015610d385784890151610d34601f891682610c47565b8355505b6001600288020188555050505b505050505050565b610d56816107d0565b82525050565b5f604082019050610d6f5f83018561085e565b610d7c6020830184610d4d565b9392505050565b7f4e487b71000000000000000000000000000000000000000000000000000000005f52603260045260245ffd5b7f4e487b71000000000000000000000000000000000000000000000000000000005f52601160045260245ffd5b5f610de7826107d0565b91507fffffffffffffffffffffffffffffffffffffffffffffffffffffffffffffffff8203610e1957610e18610db0565b5b600182019050919050565b610e2d81610741565b82525050565b5f604082019050610e465f830185610d4d565b610e536020830184610e24565b939250505056fea2646970667358221220de978e0aae4526f812bf954ec3c144f98d3869a09da7adadc929cada0850472264736f6c63430008140033",
  "immutableReferences": {},
  "source": "pragma solidity 0.8.20;\n//SPDX-License-Identifier: MIT\n\ncontract TaskContract {\n event AddTask(address recipient, uint taskId);\n event DeleteTask(uint taskId, bool isDeleted);\n\n struct Task {\n  uint id;\n  string taskText;\n  bool isDeleted;\n }\n\n Task[] tasks;\n mapping(uint256 => address) public taskToOwner;\n\n function addTask(string memory taskText, bool isDeleted) external {\n  //to generately create unique id for task, we simply get the current length of the tasks array\n  uint taskId = tasks.length;\n  tasks.push(Task(taskId, taskText, isDeleted));\n  //msg.sender will have the wallet address of the user\n  taskToOwner[taskId] = msg.sender;\n  emit AddTask(msg.sender, taskId);\n }\n\n function getMyTasks() external view returns (Task[] memory) {\n  Task[] memory temporary = new Task[](tasks.length); \n  uint counter = 0;\n\n  for (uint i = 0; i < tasks.length; i++) {\n   if (taskToOwner[i] == msg.sender && !tasks[i].isDeleted) {\n    temporary[counter] = tasks[i];\n    counter++;\n   }\n  }\n\n  Task[] memory result = new Task[](counter);\n  for (uint i = 0; i < counter; i++) {\n   result[i] = temporary[i];\n  }\n\n  return result;\n }\n\n function deleteTask(uint taskId, bool isDeleted) external {\n  if(taskToOwner[taskId] == msg.sender) {\n   tasks[taskId].isDeleted = isDeleted;\n   emit DeleteTask(taskId, isDeleted);\n  }\n }\n}\n",
  "sourcePath": "D:\\ite18_blockchain\\api\\contracts\\TaskContract.sol",
  "compiler": {
    "name": "solc",
    "version": "0.8.20+commit.a1b79de6.Emscripten.clang"
  },
  "schemaVersion": "3.4.14",
  "updatedAt": "2023-06-27T10:45:49.772Z",
  "devdoc": {
    "kind": "dev",
    "methods": {},
    "version": 1
  },
  "userdoc": {
    "kind": "user",
    "methods": {},
    "version": 1
  }
}